{
  "_format": "hh3-artifact-1",
  "contractName": "BatchRegistry",
  "sourceName": "contracts/BatchRegistry.sol",
  "abi": [
    {
      "inputs": [],
      "stateMutability": "nonpayable",
      "type": "constructor"
    },
    {
      "inputs": [
        {
          "internalType": "address",
          "name": "owner",
          "type": "address"
        }
      ],
      "name": "OwnableInvalidOwner",
      "type": "error"
    },
    {
      "inputs": [
        {
          "internalType": "address",
          "name": "account",
          "type": "address"
        }
      ],
      "name": "OwnableUnauthorizedAccount",
      "type": "error"
    },
    {
      "anonymous": false,
      "inputs": [
        {
          "indexed": true,
          "internalType": "bytes32",
          "name": "batchId",
          "type": "bytes32"
        },
        {
          "indexed": true,
          "internalType": "address",
          "name": "farmer",
          "type": "address"
        },
        {
          "indexed": false,
          "internalType": "string",
          "name": "cropType",
          "type": "string"
        },
        {
          "indexed": false,
          "internalType": "uint256",
          "name": "weightKg",
          "type": "uint256"
        },
        {
          "indexed": false,
          "internalType": "uint256",
          "name": "farmGatePrice",
          "type": "uint256"
        },
        {
          "indexed": false,
          "internalType": "uint256",
          "name": "timestamp",
          "type": "uint256"
        }
      ],
      "name": "BatchRegistered",
      "type": "event"
    },
    {
      "anonymous": false,
      "inputs": [
        {
          "indexed": true,
          "internalType": "address",
          "name": "farmer",
          "type": "address"
        }
      ],
      "name": "FarmerAuthorized",
      "type": "event"
    },
    {
      "anonymous": false,
      "inputs": [
        {
          "indexed": true,
          "internalType": "address",
          "name": "farmer",
          "type": "address"
        }
      ],
      "name": "FarmerDeauthorized",
      "type": "event"
    },
    {
      "anonymous": false,
      "inputs": [
        {
          "indexed": true,
          "internalType": "address",
          "name": "previousOwner",
          "type": "address"
        },
        {
          "indexed": true,
          "internalType": "address",
          "name": "newOwner",
          "type": "address"
        }
      ],
      "name": "OwnershipTransferred",
      "type": "event"
    },
    {
      "inputs": [
        {
          "internalType": "address",
          "name": "_farmer",
          "type": "address"
        }
      ],
      "name": "authorizeFarmer",
      "outputs": [],
      "stateMutability": "nonpayable",
      "type": "function"
    },
    {
      "inputs": [
        {
          "internalType": "address",
          "name": "",
          "type": "address"
        }
      ],
      "name": "authorizedFarmers",
      "outputs": [
        {
          "internalType": "bool",
          "name": "",
          "type": "bool"
        }
      ],
      "stateMutability": "view",
      "type": "function"
    },
    {
      "inputs": [
        {
          "internalType": "bytes32",
          "name": "",
          "type": "bytes32"
        }
      ],
      "name": "batches",
      "outputs": [
        {
          "internalType": "bytes32",
          "name": "id",
          "type": "bytes32"
        },
        {
          "internalType": "address",
          "name": "farmer",
          "type": "address"
        },
        {
          "internalType": "string",
          "name": "cropType",
          "type": "string"
        },
        {
          "internalType": "uint256",
          "name": "weightKg",
          "type": "uint256"
        },
        {
          "internalType": "string",
          "name": "gpsCoordinates",
          "type": "string"
        },
        {
          "internalType": "uint256",
          "name": "farmGatePrice",
          "type": "uint256"
        },
        {
          "internalType": "uint256",
          "name": "timestamp",
          "type": "uint256"
        },
        {
          "internalType": "bool",
          "name": "exists",
          "type": "bool"
        }
      ],
      "stateMutability": "view",
      "type": "function"
    },
    {
      "inputs": [
        {
          "internalType": "address",
          "name": "_farmer",
          "type": "address"
        }
      ],
      "name": "deauthorizeFarmer",
      "outputs": [],
      "stateMutability": "nonpayable",
      "type": "function"
    },
    {
      "inputs": [
        {
          "internalType": "bytes32",
          "name": "_batchId",
          "type": "bytes32"
        }
      ],
      "name": "getBatch",
      "outputs": [
        {
          "components": [
            {
              "internalType": "bytes32",
              "name": "id",
              "type": "bytes32"
            },
            {
              "internalType": "address",
              "name": "farmer",
              "type": "address"
            },
            {
              "internalType": "string",
              "name": "cropType",
              "type": "string"
            },
            {
              "internalType": "uint256",
              "name": "weightKg",
              "type": "uint256"
            },
            {
              "internalType": "string",
              "name": "gpsCoordinates",
              "type": "string"
            },
            {
              "internalType": "uint256",
              "name": "farmGatePrice",
              "type": "uint256"
            },
            {
              "internalType": "uint256",
              "name": "timestamp",
              "type": "uint256"
            },
            {
              "internalType": "bool",
              "name": "exists",
              "type": "bool"
            }
          ],
          "internalType": "struct BatchRegistry.Batch",
          "name": "",
          "type": "tuple"
        }
      ],
      "stateMutability": "view",
      "type": "function"
    },
    {
      "inputs": [],
      "name": "owner",
      "outputs": [
        {
          "internalType": "address",
          "name": "",
          "type": "address"
        }
      ],
      "stateMutability": "view",
      "type": "function"
    },
    {
      "inputs": [
        {
          "internalType": "string",
          "name": "_cropType",
          "type": "string"
        },
        {
          "internalType": "uint256",
          "name": "_weightKg",
          "type": "uint256"
        },
        {
          "internalType": "string",
          "name": "_gpsCoordinates",
          "type": "string"
        },
        {
          "internalType": "uint256",
          "name": "_farmGatePrice",
          "type": "uint256"
        }
      ],
      "name": "registerBatch",
      "outputs": [
        {
          "internalType": "bytes32",
          "name": "",
          "type": "bytes32"
        }
      ],
      "stateMutability": "nonpayable",
      "type": "function"
    },
    {
      "inputs": [],
      "name": "renounceOwnership",
      "outputs": [],
      "stateMutability": "nonpayable",
      "type": "function"
    },
    {
      "inputs": [
        {
          "internalType": "address",
          "name": "newOwner",
          "type": "address"
        }
      ],
      "name": "transferOwnership",
      "outputs": [],
      "stateMutability": "nonpayable",
      "type": "function"
    }
  ],
  "bytecode": "0x6080604052348015600e575f5ffd5b503380603357604051631e4fbdf760e01b81525f600482015260240160405180910390fd5b603a81603f565b50608e565b5f80546001600160a01b038381166001600160a01b0319831681178455604051919092169283917f8be0079c531659141344cd1fd0a4f28419497f9722a3daafe3b4186f6b6457e09190a35050565b610cea8061009b5f395ff3fe608060405234801561000f575f5ffd5b5060043610610090575f3560e01c80638da5cb5b116100635780638da5cb5b146100ea578063a88dde0c14610104578063c81e25ab14610136578063ed42136f1461015d578063f2fde38b1461017d575f5ffd5b806308906a9114610094578063575a47cf146100a957806361b24c41146100cf578063715018a6146100e2575b5f5ffd5b6100a76100a2366004610890565b610190565b005b6100bc6100b736600461095c565b6101e3565b6040519081526020015b60405180910390f35b6100a76100dd366004610890565b6103e8565b6100a7610438565b5f546040516001600160a01b0390911681526020016100c6565b610126610112366004610890565b60026020525f908152604090205460ff1681565b60405190151581526020016100c6565b6101496101443660046109d1565b61044b565b6040516100c6989796959493929190610a16565b61017061016b3660046109d1565b6105a7565b6040516100c69190610a7b565b6100a761018b366004610890565b6107d8565b610198610815565b6001600160a01b0381165f81815260026020526040808220805460ff19166001179055517f58bc9c726ad9a7c31eac2c571be03ff30033e56bb25d59ab5e21c388382bd7779190a250565b335f9081526002602052604081205460ff166102465760405162461bcd60e51b815260206004820152601860248201527f4e6f7420616e20617574686f72697a6564206661726d6572000000000000000060448201526064015b60405180910390fd5b5f33428760405160200161025c93929190610b0e565b60408051601f1981840301815291815281516020928301205f818152600190935291206007015490915060ff16156102c75760405162461bcd60e51b815260206004820152600e60248201526d2430b9b41031b7b63634b9b4b7b760911b604482015260640161023d565b60408051610100810182528281523360208083019182528284018a8152606084018a90526080840189905260a084018890524260c0850152600160e085018190525f878152928190529490912083518155915193820180546001600160a01b0319166001600160a01b03909516949094179093559151909190600282019061034f9082610bcb565b50606082015160038201556080820151600482019061036e9082610bcb565b5060a0820151600582015560c0820151600682015560e0909101516007909101805460ff1916911515919091179055604051339082907f2159f64d3b669855439e38aaa9eb0d7f30507fd014f97dbab953263d6d5495b3906103d7908a908a9089904290610c86565b60405180910390a395945050505050565b6103f0610815565b6001600160a01b0381165f81815260026020526040808220805460ff19169055517fe1e85fad1c2d80ec9be69e10d636fc06b3532851373c23c9d2537f83ea91749d9190a250565b610440610815565b6104495f610841565b565b600160208190525f91825260409091208054918101546002820180546001600160a01b03909216929161047d90610b47565b80601f01602080910402602001604051908101604052809291908181526020018280546104a990610b47565b80156104f45780601f106104cb576101008083540402835291602001916104f4565b820191905f5260205f20905b8154815290600101906020018083116104d757829003601f168201915b50505050509080600301549080600401805461050f90610b47565b80601f016020809104026020016040519081016040528092919081815260200182805461053b90610b47565b80156105865780601f1061055d57610100808354040283529160200191610586565b820191905f5260205f20905b81548152906001019060200180831161056957829003601f168201915b50505050600583015460068401546007909401549293909290915060ff1688565b6105f46040518061010001604052805f81526020015f6001600160a01b03168152602001606081526020015f8152602001606081526020015f81526020015f81526020015f151581525090565b5f8281526001602052604090206007015460ff1661064b5760405162461bcd60e51b815260206004820152601460248201527310985d18da08191bd95cc81b9bdd08195e1a5cdd60621b604482015260640161023d565b5f8281526001602081815260409283902083516101008101855281548152928101546001600160a01b031691830191909152600281018054929391929184019161069490610b47565b80601f01602080910402602001604051908101604052809291908181526020018280546106c090610b47565b801561070b5780601f106106e25761010080835404028352916020019161070b565b820191905f5260205f20905b8154815290600101906020018083116106ee57829003601f168201915b505050505081526020016003820154815260200160048201805461072e90610b47565b80601f016020809104026020016040519081016040528092919081815260200182805461075a90610b47565b80156107a55780601f1061077c576101008083540402835291602001916107a5565b820191905f5260205f20905b81548152906001019060200180831161078857829003601f168201915b5050509183525050600582015460208201526006820154604082015260079091015460ff16151560609091015292915050565b6107e0610815565b6001600160a01b03811661080957604051631e4fbdf760e01b81525f600482015260240161023d565b61081281610841565b50565b5f546001600160a01b031633146104495760405163118cdaa760e01b815233600482015260240161023d565b5f80546001600160a01b038381166001600160a01b0319831681178455604051919092169283917f8be0079c531659141344cd1fd0a4f28419497f9722a3daafe3b4186f6b6457e09190a35050565b5f602082840312156108a0575f5ffd5b81356001600160a01b03811681146108b6575f5ffd5b9392505050565b634e487b7160e01b5f52604160045260245ffd5b5f82601f8301126108e0575f5ffd5b813567ffffffffffffffff8111156108fa576108fa6108bd565b604051601f8201601f19908116603f0116810167ffffffffffffffff81118282101715610929576109296108bd565b604052818152838201602001851015610940575f5ffd5b816020850160208301375f918101602001919091529392505050565b5f5f5f5f6080858703121561096f575f5ffd5b843567ffffffffffffffff811115610985575f5ffd5b610991878288016108d1565b94505060208501359250604085013567ffffffffffffffff8111156109b4575f5ffd5b6109c0878288016108d1565b949793965093946060013593505050565b5f602082840312156109e1575f5ffd5b5035919050565b5f81518084528060208401602086015e5f602082860101526020601f19601f83011685010191505092915050565b8881526001600160a01b0388166020820152610100604082018190525f90610a40908301896109e8565b8760608401528281036080840152610a5881886109e8565b60a0840196909652505060c0810192909252151560e09091015295945050505050565b602081528151602082015260018060a01b0360208301511660408201525f60408301516101006060840152610ab46101208401826109e8565b9050606084015160808401526080840151601f198483030160a0850152610adb82826109e8565b91505060a084015160c084015260c084015160e084015260e0840151610b0661010085018215159052565b509392505050565b6bffffffffffffffffffffffff198460601b1681528260148201525f82518060208501603485015e5f9201603401918252509392505050565b600181811c90821680610b5b57607f821691505b602082108103610b7957634e487b7160e01b5f52602260045260245ffd5b50919050565b601f821115610bc657805f5260205f20601f840160051c81016020851015610ba45750805b601f840160051c820191505b81811015610bc3575f8155600101610bb0565b50505b505050565b815167ffffffffffffffff811115610be557610be56108bd565b610bf981610bf38454610b47565b84610b7f565b6020601f821160018114610c2b575f8315610c145750848201515b5f19600385901b1c1916600184901b178455610bc3565b5f84815260208120601f198516915b82811015610c5a5787850151825560209485019460019092019101610c3a565b5084821015610c7757868401515f19600387901b60f8161c191681555b50505050600190811b01905550565b608081525f610c9860808301876109e8565b602083019590955250604081019290925260609091015291905056fea2646970667358221220e4c4fbae7f6a416670109c12bacde5ae6552205bc9090b857a1185dd2f6ae38964736f6c634300081c0033",
  "linkReferences": {},
  "deployedLinkReferences": {},
  "immutableReferences": {},
  "inputSourceName": "project/contracts/BatchRegistry.sol",
  "buildInfoId": "solc-0_8_28-741ee98f3edf317bd7cb5189fecdc5d406095a3b"
}