{
  "_format": "hh3-artifact-1",
  "contractName": "CustodyTransfer",
  "sourceName": "contracts/CustodyTransfer.sol",
  "abi": [
    {
      "inputs": [
        {
          "internalType": "address",
          "name": "_batchRegistryAddress",
          "type": "address"
        }
      ],
      "stateMutability": "nonpayable",
      "type": "constructor"
    },
    {
      "inputs": [
        {
          "internalType": "address",
          "name": "owner",
          "type": "address"
        }
      ],
      "name": "OwnableInvalidOwner",
      "type": "error"
    },
    {
      "inputs": [
        {
          "internalType": "address",
          "name": "account",
          "type": "address"
        }
      ],
      "name": "OwnableUnauthorizedAccount",
      "type": "error"
    },
    {
      "anonymous": false,
      "inputs": [
        {
          "indexed": true,
          "internalType": "bytes32",
          "name": "batchId",
          "type": "bytes32"
        },
        {
          "indexed": true,
          "internalType": "address",
          "name": "from",
          "type": "address"
        },
        {
          "indexed": true,
          "internalType": "address",
          "name": "to",
          "type": "address"
        },
        {
          "indexed": false,
          "internalType": "enum CustodyTransfer.Role",
          "name": "toRole",
          "type": "uint8"
        },
        {
          "indexed": false,
          "internalType": "uint256",
          "name": "price",
          "type": "uint256"
        },
        {
          "indexed": false,
          "internalType": "uint256",
          "name": "timestamp",
          "type": "uint256"
        }
      ],
      "name": "CustodyTransferred",
      "type": "event"
    },
    {
      "anonymous": false,
      "inputs": [
        {
          "indexed": true,
          "internalType": "address",
          "name": "previousOwner",
          "type": "address"
        },
        {
          "indexed": true,
          "internalType": "address",
          "name": "newOwner",
          "type": "address"
        }
      ],
      "name": "OwnershipTransferred",
      "type": "event"
    },
    {
      "anonymous": false,
      "inputs": [
        {
          "indexed": true,
          "internalType": "address",
          "name": "stakeholder",
          "type": "address"
        },
        {
          "indexed": false,
          "internalType": "enum CustodyTransfer.Role",
          "name": "role",
          "type": "uint8"
        }
      ],
      "name": "RoleAssigned",
      "type": "event"
    },
    {
      "anonymous": false,
      "inputs": [
        {
          "indexed": true,
          "internalType": "address",
          "name": "stakeholder",
          "type": "address"
        }
      ],
      "name": "RoleRevoked",
      "type": "event"
    },
    {
      "inputs": [
        {
          "internalType": "address",
          "name": "_stakeholder",
          "type": "address"
        },
        {
          "internalType": "enum CustodyTransfer.Role",
          "name": "_role",
          "type": "uint8"
        }
      ],
      "name": "assignRole",
      "outputs": [],
      "stateMutability": "nonpayable",
      "type": "function"
    },
    {
      "inputs": [
        {
          "internalType": "bytes32",
          "name": "",
          "type": "bytes32"
        },
        {
          "internalType": "uint256",
          "name": "",
          "type": "uint256"
        }
      ],
      "name": "batchHandoffs",
      "outputs": [
        {
          "internalType": "bytes32",
          "name": "batchId",
          "type": "bytes32"
        },
        {
          "internalType": "address",
          "name": "from",
          "type": "address"
        },
        {
          "internalType": "address",
          "name": "to",
          "type": "address"
        },
        {
          "internalType": "enum CustodyTransfer.Role",
          "name": "toRole",
          "type": "uint8"
        },
        {
          "internalType": "uint256",
          "name": "price",
          "type": "uint256"
        },
        {
          "internalType": "uint256",
          "name": "timestamp",
          "type": "uint256"
        },
        {
          "internalType": "string",
          "name": "remarks",
          "type": "string"
        }
      ],
      "stateMutability": "view",
      "type": "function"
    },
    {
      "inputs": [],
      "name": "batchRegistry",
      "outputs": [
        {
          "internalType": "contract BatchRegistry",
          "name": "",
          "type": "address"
        }
      ],
      "stateMutability": "view",
      "type": "function"
    },
    {
      "inputs": [
        {
          "internalType": "bytes32",
          "name": "",
          "type": "bytes32"
        }
      ],
      "name": "currentCustodian",
      "outputs": [
        {
          "internalType": "address",
          "name": "",
          "type": "address"
        }
      ],
      "stateMutability": "view",
      "type": "function"
    },
    {
      "inputs": [
        {
          "internalType": "bytes32",
          "name": "_batchId",
          "type": "bytes32"
        }
      ],
      "name": "getHandoffs",
      "outputs": [
        {
          "components": [
            {
              "internalType": "bytes32",
              "name": "batchId",
              "type": "bytes32"
            },
            {
              "internalType": "address",
              "name": "from",
              "type": "address"
            },
            {
              "internalType": "address",
              "name": "to",
              "type": "address"
            },
            {
              "internalType": "enum CustodyTransfer.Role",
              "name": "toRole",
              "type": "uint8"
            },
            {
              "internalType": "uint256",
              "name": "price",
              "type": "uint256"
            },
            {
              "internalType": "uint256",
              "name": "timestamp",
              "type": "uint256"
            },
            {
              "internalType": "string",
              "name": "remarks",
              "type": "string"
            }
          ],
          "internalType": "struct CustodyTransfer.Handoff[]",
          "name": "",
          "type": "tuple[]"
        }
      ],
      "stateMutability": "view",
      "type": "function"
    },
    {
      "inputs": [
        {
          "internalType": "bytes32",
          "name": "_batchId",
          "type": "bytes32"
        },
        {
          "internalType": "address",
          "name": "_processor",
          "type": "address"
        },
        {
          "internalType": "uint256",
          "name": "_price",
          "type": "uint256"
        },
        {
          "internalType": "string",
          "name": "_remarks",
          "type": "string"
        }
      ],
      "name": "initialTransfer",
      "outputs": [],
      "stateMutability": "nonpayable",
      "type": "function"
    },
    {
      "inputs": [],
      "name": "owner",
      "outputs": [
        {
          "internalType": "address",
          "name": "",
          "type": "address"
        }
      ],
      "stateMutability": "view",
      "type": "function"
    },
    {
      "inputs": [],
      "name": "renounceOwnership",
      "outputs": [],
      "stateMutability": "nonpayable",
      "type": "function"
    },
    {
      "inputs": [
        {
          "internalType": "address",
          "name": "_stakeholder",
          "type": "address"
        }
      ],
      "name": "revokeRole",
      "outputs": [],
      "stateMutability": "nonpayable",
      "type": "function"
    },
    {
      "inputs": [
        {
          "internalType": "address",
          "name": "",
          "type": "address"
        }
      ],
      "name": "stakeholderRoles",
      "outputs": [
        {
          "internalType": "enum CustodyTransfer.Role",
          "name": "",
          "type": "uint8"
        }
      ],
      "stateMutability": "view",
      "type": "function"
    },
    {
      "inputs": [
        {
          "internalType": "bytes32",
          "name": "_batchId",
          "type": "bytes32"
        },
        {
          "internalType": "address",
          "name": "_to",
          "type": "address"
        },
        {
          "internalType": "uint256",
          "name": "_price",
          "type": "uint256"
        },
        {
          "internalType": "string",
          "name": "_remarks",
          "type": "string"
        }
      ],
      "name": "transferCustody",
      "outputs": [],
      "stateMutability": "nonpayable",
      "type": "function"
    },
    {
      "inputs": [
        {
          "internalType": "address",
          "name": "newOwner",
          "type": "address"
        }
      ],
      "name": "transferOwnership",
      "outputs": [],
      "stateMutability": "nonpayable",
      "type": "function"
    }
  ],
  "bytecode": "0x608060405234801561000f575f5ffd5b5060405161140238038061140283398101604081905261002e916100d1565b338061005357604051631e4fbdf760e01b81525f600482015260240160405180910390fd5b61005c81610082565b50600180546001600160a01b0319166001600160a01b03929092169190911790556100fe565b5f80546001600160a01b038381166001600160a01b0319831681178455604051919092169283917f8be0079c531659141344cd1fd0a4f28419497f9722a3daafe3b4186f6b6457e09190a35050565b5f602082840312156100e1575f5ffd5b81516001600160a01b03811681146100f7575f5ffd5b9392505050565b6112f78061010b5f395ff3fe608060405234801561000f575f5ffd5b50600436106100b1575f3560e01c8063715018a61161006e578063715018a61461018857806380e52e3f146101905780638da5cb5b146101a3578063aa40b77b146101b3578063db8b550f146101c6578063f2fde38b146101ec575f5ffd5b806309892533146100b557806337d306fe146100ca57806357d70913146101025780635a8a0fb014610122578063630a195b146101625780636d85abd614610175575b5f5ffd5b6100c86100c3366004610d56565b6101ff565b005b6100ec6100d8366004610df5565b60026020525f908152604090205460ff1681565b6040516100f99190610e4b565b60405180910390f35b610115610110366004610e5f565b6103dc565b6040516100f99190610ea4565b61014a610130366004610e5f565b60036020525f90815260409020546001600160a01b031681565b6040516001600160a01b0390911681526020016100f9565b6100c8610170366004610f69565b610550565b6100c8610183366004610d56565b610625565b6100c8610911565b6100c861019e366004610df5565b610924565b5f546001600160a01b031661014a565b60015461014a906001600160a01b031681565b6101d96101d4366004610fa3565b610974565b6040516100f99796959493929190610fc3565b6100c86101fa366004610df5565b610a67565b60015460405163ed42136f60e01b8152600481018690525f916001600160a01b03169063ed42136f906024015f60405180830381865afa158015610245573d5f5f3e3d5ffd5b505050506040513d5f823e601f3d908101601f1916820160405261026c9190810190611084565b905080602001516001600160a01b0316336001600160a01b0316146102e75760405162461bcd60e51b815260206004820152602660248201527f4f6e6c7920746865206661726d65722063616e20696e697469617465207472616044820152651b9cdc1bdc9d60d21b60648201526084015b60405180910390fd5b5f858152600360205260409020546001600160a01b03161561034b5760405162461bcd60e51b815260206004820152601b60248201527f426174636820697320616c726561647920696e207472616e736974000000000060448201526064016102de565b60016001600160a01b0385165f9081526002602052604090205460ff16600381111561037957610379610e17565b146103c65760405162461bcd60e51b815260206004820152601c60248201527f5265636569766572206d75737420626520612070726f636573736f720000000060448201526064016102de565b6103d585338660018787610aa4565b5050505050565b606060045f8381526020019081526020015f20805480602002602001604051908101604052809291908181526020015f905b82821015610545575f8481526020908190206040805160e081018252600686029092018054835260018101546001600160a01b039081169484019490945260028101549384169183019190915290916060830190600160a01b900460ff16600381111561047d5761047d610e17565b600381111561048e5761048e610e17565b815260200160038201548152602001600482015481526020016005820180546104b690611166565b80601f01602080910402602001604051908101604052809291908181526020018280546104e290611166565b801561052d5780601f106105045761010080835404028352916020019161052d565b820191905f5260205f20905b81548152906001019060200180831161051057829003601f168201915b5050505050815250508152602001906001019061040e565b505050509050919050565b610558610c31565b5f81600381111561056b5761056b610e17565b036105a75760405162461bcd60e51b815260206004820152600c60248201526b496e76616c696420726f6c6560a01b60448201526064016102de565b6001600160a01b0382165f908152600260205260409020805482919060ff191660018360038111156105db576105db610e17565b0217905550816001600160a01b03167f4ac36fa53f167ceb85964be512e01de2a3b8bdb9862f917da079deeeff689b38826040516106199190610e4b565b60405180910390a25050565b335f9081526002602052604081205460ff16600381111561064857610648610e17565b036106955760405162461bcd60e51b815260206004820152601c60248201527f4e6f7420612072656769737465726564207374616b65686f6c6465720000000060448201526064016102de565b5f848152600360205260409020546001600160a01b031633146107045760405162461bcd60e51b815260206004820152602160248201527f596f7520617265206e6f74207468652063757272656e7420637573746f6469616044820152603760f91b60648201526084016102de565b335f90815260026020526040808220546001600160a01b03861683529082205460ff9182169291169081600381111561073f5761073f610e17565b0361079d5760405162461bcd60e51b815260206004820152602860248201527f5265636569766572206973206e6f74206120726567697374657265642073746160448201526735b2b437b63232b960c11b60648201526084016102de565b60018260038111156107b1576107b1610e17565b0361082f5760028160038111156107ca576107ca610e17565b1461082a5760405162461bcd60e51b815260206004820152602a60248201527f50726f636573736f722063616e206f6e6c79207472616e7366657220746f204460448201526934b9ba3934b13aba37b960b11b60648201526084016102de565b6108fb565b600282600381111561084357610843610e17565b036108bb57600381600381111561085c5761085c610e17565b1461082a5760405162461bcd60e51b815260206004820152602960248201527f4469737472696275746f722063616e206f6e6c79207472616e7366657220746f604482015268102932ba30b4b632b960b91b60648201526084016102de565b60405162461bcd60e51b8152602060048201526015602482015274092dcecc2d8d2c840e8e4c2dce6cccae440e0c2e8d605b1b60448201526064016102de565b610909863387848888610aa4565b505050505050565b610919610c31565b6109225f610c5d565b565b61092c610c31565b6001600160a01b0381165f81815260026020526040808220805460ff19169055517f6107a4a5447a4208ba14e3ec240bccf0a93828124ccf501af04601031070b1839190a250565b6004602052815f5260405f20818154811061098d575f80fd5b5f9182526020909120600690910201805460018201546002830154600384015460048501546005860180549598506001600160a01b03948516975093831695600160a01b90930460ff169491939092916109e690611166565b80601f0160208091040260200160405190810160405280929190818152602001828054610a1290611166565b8015610a5d5780601f10610a3457610100808354040283529160200191610a5d565b820191905f5260205f20905b815481529060010190602001808311610a4057829003601f168201915b5050505050905087565b610a6f610c31565b6001600160a01b038116610a9857604051631e4fbdf760e01b81525f60048201526024016102de565b610aa181610c5d565b50565b5f86815260036020818152604080842080546001600160a01b0319166001600160a01b038a81169182179092556004845294829020825160e0810184528c8152918b169382019390935290810193909352919060608201908690811115610b0d57610b0d610e17565b815260208082018690524260408084019190915260609283018690528454600181810187555f9687529583902085516006909202019081559184015194820180546001600160a01b039687166001600160a01b0319918216179091559084015160028301805491909616918116821786559284015193949193926001600160a81b03191617600160a01b836003811115610ba957610ba9610e17565b02179055506080820151600382015560a0820151600482015560c08201516005820190610bd690826111e7565b505050836001600160a01b0316856001600160a01b0316877f1a4288128514a6ed6f0ae4337d8a05ae8e4b706eb8b57b50d9366ed56dedb670868642604051610c21939291906112a2565b60405180910390a4505050505050565b5f546001600160a01b031633146109225760405163118cdaa760e01b81523360048201526024016102de565b5f80546001600160a01b038381166001600160a01b0319831681178455604051919092169283917f8be0079c531659141344cd1fd0a4f28419497f9722a3daafe3b4186f6b6457e09190a35050565b6001600160a01b0381168114610aa1575f5ffd5b634e487b7160e01b5f52604160045260245ffd5b604051610100810167ffffffffffffffff81118282101715610cf857610cf8610cc0565b60405290565b604051601f8201601f1916810167ffffffffffffffff81118282101715610d2757610d27610cc0565b604052919050565b5f67ffffffffffffffff821115610d4857610d48610cc0565b50601f01601f191660200190565b5f5f5f5f60808587031215610d69575f5ffd5b843593506020850135610d7b81610cac565b925060408501359150606085013567ffffffffffffffff811115610d9d575f5ffd5b8501601f81018713610dad575f5ffd5b8035610dc0610dbb82610d2f565b610cfe565b818152886020838501011115610dd4575f5ffd5b816020840160208301375f6020838301015280935050505092959194509250565b5f60208284031215610e05575f5ffd5b8135610e1081610cac565b9392505050565b634e487b7160e01b5f52602160045260245ffd5b60048110610e4757634e487b7160e01b5f52602160045260245ffd5b9052565b60208101610e598284610e2b565b92915050565b5f60208284031215610e6f575f5ffd5b5035919050565b5f81518084528060208401602086015e5f602082860101526020601f19601f83011685010191505092915050565b5f602082016020835280845180835260408501915060408160051b8601019250602086015f5b82811015610f5d57603f1987860301845281518051865260018060a01b03602082015116602087015260018060a01b0360408201511660408701526060810151610f176060880182610e2b565b506080810151608087015260a081015160a087015260c0810151905060e060c0870152610f4760e0870182610e76565b9550506020938401939190910190600101610eca565b50929695505050505050565b5f5f60408385031215610f7a575f5ffd5b8235610f8581610cac565b9150602083013560048110610f98575f5ffd5b809150509250929050565b5f5f60408385031215610fb4575f5ffd5b50508035926020909101359150565b8781526001600160a01b03878116602083015286166040820152610fea6060820186610e2b565b8360808201528260a082015260e060c08201525f61100b60e0830184610e76565b9998505050505050505050565b805161102381610cac565b919050565b5f82601f830112611037575f5ffd5b8151611045610dbb82610d2f565b818152846020838601011115611059575f5ffd5b8160208501602083015e5f918101602001919091529392505050565b80518015158114611023575f5ffd5b5f60208284031215611094575f5ffd5b815167ffffffffffffffff8111156110aa575f5ffd5b820161010081850312156110bc575f5ffd5b6110c4610cd4565b815181526110d460208301611018565b6020820152604082015167ffffffffffffffff8111156110f2575f5ffd5b6110fe86828501611028565b60408301525060608281015190820152608082015167ffffffffffffffff811115611127575f5ffd5b61113386828501611028565b60808301525060a0828101519082015260c0808301519082015261115960e08301611075565b60e0820152949350505050565b600181811c9082168061117a57607f821691505b60208210810361119857634e487b7160e01b5f52602260045260245ffd5b50919050565b601f8211156111e257805f5260205f20601f840160051c810160208510156111c35750805b601f840160051c820191505b818110156103d5575f81556001016111cf565b505050565b815167ffffffffffffffff81111561120157611201610cc0565b6112158161120f8454611166565b8461119e565b6020601f821160018114611247575f83156112305750848201515b5f19600385901b1c1916600184901b1784556103d5565b5f84815260208120601f198516915b828110156112765787850151825560209485019460019092019101611256565b508482101561129357868401515f19600387901b60f8161c191681555b50505050600190811b01905550565b606081016112b08286610e2b565b60208201939093526040015291905056fea2646970667358221220d64aded8d2a8ad287a71006fbc43308b810a15a042bfb2cec138d2a9aeaa256664736f6c634300081c0033",
  "linkReferences": {},
  "deployedLinkReferences": {},
  "immutableReferences": {},
  "inputSourceName": "project/contracts/CustodyTransfer.sol",
  "buildInfoId": "solc-0_8_28-f510861db0f93f6659f85dc59425cd84e7833745"
}