{
  "_format": "hh3-artifact-1",
  "contractName": "PaymentEscrow",
  "sourceName": "contracts/PaymentEscrow.sol",
  "abi": [
    {
      "inputs": [
        {
          "internalType": "address",
          "name": "_batchRegistryAddress",
          "type": "address"
        },
        {
          "internalType": "address",
          "name": "_custodyTransferAddress",
          "type": "address"
        }
      ],
      "stateMutability": "nonpayable",
      "type": "constructor"
    },
    {
      "inputs": [
        {
          "internalType": "address",
          "name": "owner",
          "type": "address"
        }
      ],
      "name": "OwnableInvalidOwner",
      "type": "error"
    },
    {
      "inputs": [
        {
          "internalType": "address",
          "name": "account",
          "type": "address"
        }
      ],
      "name": "OwnableUnauthorizedAccount",
      "type": "error"
    },
    {
      "anonymous": false,
      "inputs": [
        {
          "indexed": true,
          "internalType": "bytes32",
          "name": "batchId",
          "type": "bytes32"
        }
      ],
      "name": "DisputeFlagged",
      "type": "event"
    },
    {
      "anonymous": false,
      "inputs": [
        {
          "indexed": true,
          "internalType": "address",
          "name": "previousOwner",
          "type": "address"
        },
        {
          "indexed": true,
          "internalType": "address",
          "name": "newOwner",
          "type": "address"
        }
      ],
      "name": "OwnershipTransferred",
      "type": "event"
    },
    {
      "anonymous": false,
      "inputs": [
        {
          "indexed": true,
          "internalType": "bytes32",
          "name": "batchId",
          "type": "bytes32"
        },
        {
          "indexed": true,
          "internalType": "address",
          "name": "buyer",
          "type": "address"
        },
        {
          "indexed": false,
          "internalType": "uint256",
          "name": "amount",
          "type": "uint256"
        }
      ],
      "name": "PaymentLocked",
      "type": "event"
    },
    {
      "anonymous": false,
      "inputs": [
        {
          "indexed": true,
          "internalType": "bytes32",
          "name": "batchId",
          "type": "bytes32"
        },
        {
          "indexed": true,
          "internalType": "address",
          "name": "buyer",
          "type": "address"
        },
        {
          "indexed": false,
          "internalType": "uint256",
          "name": "amount",
          "type": "uint256"
        }
      ],
      "name": "PaymentRefunded",
      "type": "event"
    },
    {
      "anonymous": false,
      "inputs": [
        {
          "indexed": true,
          "internalType": "bytes32",
          "name": "batchId",
          "type": "bytes32"
        },
        {
          "indexed": true,
          "internalType": "address",
          "name": "farmer",
          "type": "address"
        },
        {
          "indexed": false,
          "internalType": "uint256",
          "name": "amount",
          "type": "uint256"
        }
      ],
      "name": "PaymentReleased",
      "type": "event"
    },
    {
      "inputs": [],
      "name": "DISPUTE_TIMEOUT",
      "outputs": [
        {
          "internalType": "uint256",
          "name": "",
          "type": "uint256"
        }
      ],
      "stateMutability": "view",
      "type": "function"
    },
    {
      "inputs": [
        {
          "internalType": "bytes32",
          "name": "",
          "type": "bytes32"
        }
      ],
      "name": "batchEscrows",
      "outputs": [
        {
          "internalType": "bytes32",
          "name": "batchId",
          "type": "bytes32"
        },
        {
          "internalType": "address",
          "name": "farmer",
          "type": "address"
        },
        {
          "internalType": "address",
          "name": "buyer",
          "type": "address"
        },
        {
          "internalType": "uint256",
          "name": "amount",
          "type": "uint256"
        },
        {
          "internalType": "uint256",
          "name": "lockTimestamp",
          "type": "uint256"
        },
        {
          "internalType": "enum PaymentEscrow.EscrowStatus",
          "name": "status",
          "type": "uint8"
        }
      ],
      "stateMutability": "view",
      "type": "function"
    },
    {
      "inputs": [],
      "name": "batchRegistry",
      "outputs": [
        {
          "internalType": "contract BatchRegistry",
          "name": "",
          "type": "address"
        }
      ],
      "stateMutability": "view",
      "type": "function"
    },
    {
      "inputs": [],
      "name": "custodyTransfer",
      "outputs": [
        {
          "internalType": "contract CustodyTransfer",
          "name": "",
          "type": "address"
        }
      ],
      "stateMutability": "view",
      "type": "function"
    },
    {
      "inputs": [
        {
          "internalType": "bytes32",
          "name": "_batchId",
          "type": "bytes32"
        }
      ],
      "name": "flagDispute",
      "outputs": [],
      "stateMutability": "nonpayable",
      "type": "function"
    },
    {
      "inputs": [
        {
          "internalType": "bytes32",
          "name": "_batchId",
          "type": "bytes32"
        }
      ],
      "name": "lockPayment",
      "outputs": [],
      "stateMutability": "payable",
      "type": "function"
    },
    {
      "inputs": [],
      "name": "owner",
      "outputs": [
        {
          "internalType": "address",
          "name": "",
          "type": "address"
        }
      ],
      "stateMutability": "view",
      "type": "function"
    },
    {
      "inputs": [
        {
          "internalType": "bytes32",
          "name": "_batchId",
          "type": "bytes32"
        }
      ],
      "name": "releasePayment",
      "outputs": [],
      "stateMutability": "nonpayable",
      "type": "function"
    },
    {
      "inputs": [],
      "name": "renounceOwnership",
      "outputs": [],
      "stateMutability": "nonpayable",
      "type": "function"
    },
    {
      "inputs": [
        {
          "internalType": "bytes32",
          "name": "_batchId",
          "type": "bytes32"
        }
      ],
      "name": "resolveDisputeRefund",
      "outputs": [],
      "stateMutability": "nonpayable",
      "type": "function"
    },
    {
      "inputs": [
        {
          "internalType": "bytes32",
          "name": "_batchId",
          "type": "bytes32"
        }
      ],
      "name": "resolveDisputeRelease",
      "outputs": [],
      "stateMutability": "nonpayable",
      "type": "function"
    },
    {
      "inputs": [
        {
          "internalType": "address",
          "name": "newOwner",
          "type": "address"
        }
      ],
      "name": "transferOwnership",
      "outputs": [],
      "stateMutability": "nonpayable",
      "type": "function"
    }
  ],
  "bytecode": "0x608060405234801561000f575f5ffd5b50604051610e0e380380610e0e83398101604081905261002e916100f8565b338061005357604051631e4fbdf760e01b81525f600482015260240160405180910390fd5b61005c8161008e565b50600180546001600160a01b039384166001600160a01b03199182161790915560028054929093169116179055610129565b5f80546001600160a01b038381166001600160a01b0319831681178455604051919092169283917f8be0079c531659141344cd1fd0a4f28419497f9722a3daafe3b4186f6b6457e09190a35050565b80516001600160a01b03811681146100f3575f5ffd5b919050565b5f5f60408385031215610109575f5ffd5b610112836100dd565b9150610120602084016100dd565b90509250929050565b610cd8806101365f395ff3fe6080604052600436106100a5575f3560e01c80638da5cb5b116100625780638da5cb5b146101ce5780639a37e76b146101ea578063a7dc49ab14610209578063aa40b77b14610228578063bfd32e4914610247578063f2fde38b1461025a575f5ffd5b8063486265c6146100a95780634d7f490c146100d25780636ab1a89914610109578063715018a61461012a5780637aa1ed581461013e5780638b102c2c1461015d575b5f5ffd5b3480156100b4575f5ffd5b506100bf6202a30081565b6040519081526020015b60405180910390f35b3480156100dd575f5ffd5b506002546100f1906001600160a01b031681565b6040516001600160a01b0390911681526020016100c9565b348015610114575f5ffd5b506101286101233660046109f9565b610279565b005b348015610135575f5ffd5b506101286103aa565b348015610149575f5ffd5b506101286101583660046109f9565b6103bd565b348015610168575f5ffd5b506101bc6101773660046109f9565b600360208190525f918252604090912080546001820154600283015493830154600484015460059094015492946001600160a01b039283169492169290919060ff1686565b6040516100c996959493929190610a24565b3480156101d9575f5ffd5b505f546001600160a01b03166100f1565b3480156101f5575f5ffd5b506101286102043660046109f9565b61052e565b348015610214575f5ffd5b506101286102233660046109f9565b610658565b348015610233575f5ffd5b506001546100f1906001600160a01b031681565b6101286102553660046109f9565b6106d0565b348015610265575f5ffd5b50610128610274366004610a91565b610941565b61028161097e565b5f81815260036020819052604090912090600582015460ff1660048111156102ab576102ab610a10565b14806102c857506202a30081600401546102c59190610ab3565b42115b61030d5760405162461bcd60e51b815260206004820152601160248201527010d85b9b9bdd081c99599d5b99081e595d607a1b60448201526064015b60405180910390fd5b60058101805460ff19166004179055600281015460038201546040516001600160a01b03909216916108fc82150291905f818181858888f19350505050158015610359573d5f5f3e3d5ffd5b50600281015460038201546040519081526001600160a01b039091169083907f3b28817a65441bed1ac3a5496c6b71346aa302e80c7418c12e1c49eaa1721176906020015b60405180910390a35050565b6103b261097e565b6103bb5f6109aa565b565b5f8181526003602052604090206001600582015460ff1660048111156103e5576103e5610a10565b146104295760405162461bcd60e51b8152602060048201526014602482015273115cd8dc9bddc81a5cc81b9bdd081b1bd8dad95960621b6044820152606401610304565b60028101546001600160a01b031633148061044d57505f546001600160a01b031633145b6104995760405162461bcd60e51b815260206004820152601960248201527f4e6f7420617574686f72697a656420746f2072656c65617365000000000000006044820152606401610304565b60058101805460ff19166002179055600181015460038201546040516001600160a01b03909216916108fc82150291905f818181858888f193505050501580156104e5573d5f5f3e3d5ffd5b50600181015460038201546040519081526001600160a01b039091169083907f1e170c3b430cc6fdcdaa453c42619ac587e13793aa81a489fab9ebd7019c2efb9060200161039e565b5f8181526003602052604090206001600582015460ff16600481111561055657610556610a10565b1461059a5760405162461bcd60e51b8152602060048201526014602482015273115cd8dc9bddc81a5cc81b9bdd081b1bd8dad95960621b6044820152606401610304565b60028101546001600160a01b03163314806105c1575060018101546001600160a01b031633145b61061b5760405162461bcd60e51b815260206004820152602560248201527f4f6e6c79206275796572206f72206661726d65722063616e20666c6167206469604482015264737075746560d81b6064820152608401610304565b60058101805460ff1916600317905560405182907f701e24b25bcecc7b2527eb9b4829b514dfbd72bff61ed5b1bb7bf2f15fc609d7905f90a25050565b61066061097e565b5f81815260036020819052604090912090600582015460ff16600481111561068a5761068a610a10565b146104995760405162461bcd60e51b8152602060048201526016602482015275115cd8dc9bddc81a5cc81b9bdd08191a5cdc1d5d195960521b6044820152606401610304565b60015460405163ed42136f60e01b8152600481018390525f916001600160a01b03169063ed42136f906024015f60405180830381865afa158015610716573d5f5f3e3d5ffd5b505050506040513d5f823e601f3d908101601f1916820160405261073d9190810190610bc0565b90508060e001516107875760405162461bcd60e51b815260206004820152601460248201527310985d18da08191bd95cc81b9bdd08195e1a5cdd60621b6044820152606401610304565b8060a0015134146107da5760405162461bcd60e51b815260206004820152601860248201527f496e636f7272656374207061796d656e7420616d6f756e7400000000000000006044820152606401610304565b5f8281526003602081905260409091200154156108475760405162461bcd60e51b815260206004820152602560248201527f5061796d656e7420616c7265616479206c6f636b656420666f722074686973206044820152640c4c2e8c6d60db1b6064820152608401610304565b6040805160c0810182528381526020838101516001600160a01b039081168284019081523384860190815234606086019081524260808701908152600160a088018181525f8c81526003988990529990992088518155945185820180549188166001600160a01b0319928316179055935160028601805491909716941693909317909455519382019390935590516004808301919091559351600582018054949592949193909260ff1990921691849081111561090657610906610a10565b02179055505060405134815233915083907fa7349eaff0f04bf9c69fe64b5e86e41ee267852570ae1acdae697c6653e95a029060200161039e565b61094961097e565b6001600160a01b03811661097257604051631e4fbdf760e01b81525f6004820152602401610304565b61097b816109aa565b50565b5f546001600160a01b031633146103bb5760405163118cdaa760e01b8152336004820152602401610304565b5f80546001600160a01b038381166001600160a01b0319831681178455604051919092169283917f8be0079c531659141344cd1fd0a4f28419497f9722a3daafe3b4186f6b6457e09190a35050565b5f60208284031215610a09575f5ffd5b5035919050565b634e487b7160e01b5f52602160045260245ffd5b8681526001600160a01b03868116602083015285166040820152606081018490526080810183905260c0810160058310610a6c57634e487b7160e01b5f52602160045260245ffd5b8260a0830152979650505050505050565b6001600160a01b038116811461097b575f5ffd5b5f60208284031215610aa1575f5ffd5b8135610aac81610a7d565b9392505050565b80820180821115610ad257634e487b7160e01b5f52601160045260245ffd5b92915050565b634e487b7160e01b5f52604160045260245ffd5b604051610100810167ffffffffffffffff81118282101715610b1057610b10610ad8565b60405290565b8051610b2181610a7d565b919050565b5f82601f830112610b35575f5ffd5b815167ffffffffffffffff811115610b4f57610b4f610ad8565b604051601f8201601f19908116603f0116810167ffffffffffffffff81118282101715610b7e57610b7e610ad8565b604052818152838201602001851015610b95575f5ffd5b8160208501602083015e5f918101602001919091529392505050565b80518015158114610b21575f5ffd5b5f60208284031215610bd0575f5ffd5b815167ffffffffffffffff811115610be6575f5ffd5b82016101008185031215610bf8575f5ffd5b610c00610aec565b81518152610c1060208301610b16565b6020820152604082015167ffffffffffffffff811115610c2e575f5ffd5b610c3a86828501610b26565b60408301525060608281015190820152608082015167ffffffffffffffff811115610c63575f5ffd5b610c6f86828501610b26565b60808301525060a0828101519082015260c08083015190820152610c9560e08301610bb1565b60e082015294935050505056fea2646970667358221220736407b5add0e91fc6c8d0e193c6efe51c285b0b6a23d59051d2d98423ebecb164736f6c634300081c0033",
  "linkReferences": {},
  "deployedLinkReferences": {},
  "immutableReferences": {},
  "inputSourceName": "project/contracts/PaymentEscrow.sol",
  "buildInfoId": "solc-0_8_28-6e31650562920a467b6d2624ed4e0ff3d1d3438b"
}